:020000040800F2
:100000001005002005010008290100082B01000847
:100010002D0100082F010008310100080000000038
:100020000000000000000000000000003301000894
:100030003501000800000000370100083901000800
:100040003B0100083B0100083B0100083B010008A0
:100050003B0100083B0100083B0100083B01000890
:100060003B0100083B0100083B0100083B01000880
:100070003B0100083B0100083B0100083B01000870
:100080003B0100083B0100083B0100083B01000860
:100090003B0100083B0100083B0100083B01000850
:1000A0003B0100083B0100083B0100083B01000840
:1000B0003B0100083B0100083B0100083B01000830
:1000C0003B0100083B0100083B0100083B01000820
:1000D0003B0100083B0100083B0100083B01000810
:1000E0003B0100083B0100083B010008DFF810D08D
:1000F00000F02EF8004800477D020008AFF30080B2
:10010000100500200D488047DFF83400016841F4F5
:10011000E0210160BFF34F8FDFF82800DFF82810DF
:1001200001600A4800477047FEE7FEE7FEE7FEE78A
:10013000FEE7FEE7FEE7FEE7FEE7FEE72701000831
:1001400024ED00E00CED00E00003FA05ED000008EE
:10015000064C074D06E0E06840F0010394E8070014
:1001600098471034AC42F6D3FFF7C4FF30030008C1
:100170005003000870B5194C83202060002565608D
:10018000A56017486060012000F02EF86168084300
:10019000606014490D60086840F002000860206843
:1001A00040F48030206020688003FCD5206840F057
:1001B0008070206020688001FCD5606820F003001A
:1001C0006060606840F002006060606840F4800039
:1001D0006060086840F01000086070BD00100240C8
:1001E00000841D0000200240012804D0B0F5807F6B
:1001F00003DD012102E000202CE00021802801DD48
:10020000012200E000220A44402801DD012100E033
:1002100000210A44102801DD012100E000210A44E8
:10022000082801DD012100E000210A44042801DD45
:10023000012100E000210A44022801DD012100E043
:1002400000211144012801DD012000E000200844C4
:10025000C01D0001702800D10020704702E008C8CE
:10026000121F08C1002AFAD170477047002001E030
:1002700001C1121F002AFBD17047000010B5FFF723
:1002800079FF002408E02146054800F00DF80549F3
:1002900041F82400601C04B2402CF4DB002010BDA7
:1002A0005003000810000020F0B44FF000031B4C76
:1002B0001B4D23602B601B4A13601A4A126801FB16
:1002C00002F303F03F03184C184E34F9134036F98B
:1002D000136030F9125006FB05F704FB05F50F4BD0
:1002E0001A6815441D600E4B1A6817441F600D4BA9
:1002F0001A6802F101021A604FF040039A42DCD3FF
:1003000006480168064A13684FF000004FF00004E9
:10031000C1FB0140C3FB0340F0BC7047000000205C
:10032000040000200C000020D00300085004000846
:10033000D004000800000020100000005C0200084B
:10034000E004000810000020000500006C02000816
:10035000A80DD1018E030E0F100B58007006F60F7A
:1003600000080A009009A80FF004F200720C2F0E8A
:100370005802ED02A70EC50B9C00AD05D90FC908A8
:100380000000C908D90FAD059C00C50BA70EED02F2
:1003900058022F0E720CF200F004A80F90090A0008
:1003A0000008F60F70065800100B0E0F8E03D101D7
:1003B000A80D130D59013B04640F530A270037079A
:1003C000FF0F37072700530A640F3B045901130D31
:1003D000FF7F627F8A7D7D7A4276E3706E6AF26289
:1003E000825A34511D47573CFC302825F9188C0C93
:1003F000000074F307E7D8DA04CFA9C3E3B8CCAEA2
:100400007EA50E9D92951D8FBE89838576829E80E6
:1004100000809E8076828385BE891D8F92950E9D79
:100420007EA5CCAEE3B8A9C304CFD8DA07E774F34E
:1004300000008C0CF9182825FC30573C1D4734511E
:10044000825AF2626E6AE37042767D7A8A7D627FBA
:1004500000008C0CF9182825FC30573C1D473451FE
:10046000825AF2626E6AE37042767D7A8A7D627F9A
:10047000FF7F627F8A7D7D7A4276E3706E6AF262E8
:10048000825A34511D47573CFC302825F9188C0CF2
:10049000000074F307E7D8DA04CFA9C3E3B8CCAE01
:1004A0007EA50E9D92951D8FBE89838576829E8046
:1004B00000809E8076828385BE891D8F92950E9DD9
:1004C0007EA5CCAEE3B8A9C304CFD8DA07E774F3AE
:1004D000000000000000000000000000000000001C
:04000005080000ED02
:00000001FF
